:100000000C9451010C9482010C9482010C94820195
:100010000C9482010C9482010C9482010C94820154
:100020000C9482010C9482010C9482010C94820144
:100030000C9482010C9482010C9482010C94820134
:100040000C9482010C9482010C9482010C94820124
:100050000C9482010C9482010C9482010C948B0606
:100060000C9482010C9482010C9482010C94820104
:100070000C9482010C9482010C9482010C948201F4
:100080000C9482010C9482010C9482010C948201E4
:100090000C9482010C9482010C9482010C948201D4
:1000A0000C9482010C9482010C9482010C948201C4
:1000B0000C9482010C9482010C9482010C948201B4
:1000C0000C9482010C9482010C9482010C948201A4
:1000D0000C9482010C9482010C9482010C94820194
:1000E0000C9482010C9436030C942A020C9448025E
:1000F0000C9430020C943A020C9478030C9485060C
:100100000C9455020C943E020C94C3030C946403AB
:100110000C9454030C9415020C94CA010C94D3084B
:100120000C9431030C945C030C9427020C94AF03E1
:100130000C9450020C941F020C9456020C94420230
:100140000C94A5030C9421050C9482030C949B033E
:100150000C9440030C9423020C946E030C944C02F8
:100160000C9434020C94B9030C944A030C945A0274
:100170000C941B020C9420050C9491030C942903FD
:1001800000002100240027002A002D003000330049
:1001900001010000040107010A01000022002500FE
:1001A00028002B002E003100340002010000050160
:1001B00008010B01050505050705080808080202E6
:1001C00002020A0A080804040404010101010101F1
:1001D00001010303030303030303040707070C0CD4
:1001E0000C0C0C0C0C0C020202020606060606069B
:1001F00006060B0B0B0B0B0B0B0B01021020200840
:100200000810204010204080020102010804020171
:1002100001020408102040808040201008040201E0
:100220008004020180402010080402010804020139
:1002300001020408102040800102040810204080C0
:1002400000000A0B02090C0D0E0807030401000050
:10025000000000000000000000000000000000009E
:10026000000000000000000000000000121110005B
:10027000000000000000000000000000000000007E
:1002800000000000000000002000230026002900DC
:100290002C002F00320000010000030106010901BB
:1002A000D30811241FBECFEFD1E2DEBFCDBF00E0E7
:1002B0000CBF12E0A0E0B2E0E0EDF5E100E00BBF22
:1002C00002C007900D92AC37B107D9F722E0ACE736
:1002D000B2E001C01D92AF3AB207E1F711E0C1E50B
:1002E000D1E000E006C021970109802FFE010E94A5
:1002F000DE0AC035D10780E00807A9F70E94D506BD
:100300000C94E60A0C9400008F929F92AF92BF92D9
:10031000CF92DF92EF92FF92CF93DF93A0918C0266
:1003200030E081113A2F80918D0290E0880F991F63
:10033000AC014A575D4FC0909202D0909302E0907A
:100340009402F090950260E070E0CB01FA01C59153
:10035000D49128812A2323130FC04B015C012FEF76
:10036000821A920AA20AB20A6C157D058E059F05B3
:1003700070F060E070E0CB01DF91CF91FF90EF90E3
:10038000DF90CF90BF90AF909F908F900895C50160
:10039000B401DCCFAF92BF92CF92DF92EF92FF9287
:1003A0000F931F93CF93DF936C017B018B01040F9D
:1003B000151FEB015E01AE18BF08C017D10759F039
:1003C0006991D601ED91FC910190F081E02DC6017B
:1003D0001995892B79F7C501DF91CF911F910F9165
:1003E000FF90EF90DF90CF90BF90AF900895815035
:1003F000823108F05AC0E82FF0E08827ED5FFD4F0A
:100400008F4F0C94DE0A2302270215021B021F02E3
:1004100055022A02300234023A023E0242024802E7
:100420004C025502500256025A02809180008F778A
:10043000809380000895809180008F7DF9CF809116
:100440008000877FF5CF84B58F7784BD089584B50C
:100450008F7DFBCF8091B0008F778093B00008959F
:100460008091B0008F7DF9CF809190008F7780933D
:1004700090000895809190008F7DF9CF8091900039
:10048000877FF5CF8091A0008F778093A00008959B
:100490008091A0008F7DF9CF8091A000877FF5CF5C
:1004A000809120018F778093200108958091200111
:1004B0008F7DF9CF80912001877FF5CFCF93DF9398
:1004C000282F30E0F901E05CFD4F8491F901E650FE
:1004D000FE4FD491F901EC54FE4FC491CC23A1F00E
:1004E00081110E94F701EC2FF0E0EE0FFF1FEA5799
:1004F000FD4FA591B491EC91ED2381E090E009F4DA
:1005000080E0DF91CF91089580E090E0FACF1F93D3
:10051000CF93DF93282F30E0F901E05CFD4F849109
:10052000F901E650FE4FD491F901EC54FE4FC4910D
:10053000CC23A9F0162F81110E94F701EC2FF0E0D7
:10054000EE0FFF1FE656FE4FA591B4918FB7F894BA
:10055000EC91111108C0D095DE23DC938FBFDF91A1
:10056000CF911F910895DE2BF8CFCF93DF9390E0CA
:10057000FC01E650FE4F24918C549E4FFC01849167
:100580008823C9F090E0880F991FFC01E058FE4FC6
:10059000A591B491FC01E656FE4FC591D49161112D
:1005A0000DC09FB7F8948C91209582238C938881FD
:1005B000282328839FBFDF91CF910895623051F4A3
:1005C0009FB7F8943C91822F809583238C93E88188
:1005D0002E2BEFCF8FB7F894EC912E2B2C938FBF4F
:1005E000EACF1F93CF93DF93182FEB0161E00E94B6
:1005F000B502209739F460E0812FDF91CF911F91F0
:100600000C948702CF3FD10511F461E0F5CFE12FC3
:10061000F0E0E05CFD4FE491E150E23108F0B3C05E
:10062000F0E08827E95EFC4F8F4F0C94DE0A290327
:100630003103360340034A03C30354035C036403DA
:100640006E037803820391039B03C303A503AF03E7
:10065000B90384B5806884BDC7BDDF91CF911F9178
:10066000089584B5806284BDC8BDF7CF80918000B5
:10067000806880938000D0938900C0938800EDCF7C
:1006800080918000806280938000D0938B00C09323
:100690008A00E3CF80918000886080938000D093AF
:1006A0008D00C0938C00D9CF8091B000806880937A
:1006B000B000C093B300D1CF8091B000806280932E
:1006C000B000C093B400C9CF80919000806880933F
:1006D0009000D0939900C0939800BFCF8091900074
:1006E000806280939000D0939B00C0939A00B5CF16
:1006F00080919000886080939000D0939D00C0937B
:100700009C00ABCF8091A00080688093A000809176
:10071000A0008F7B8093A000D093A900C093A80075
:100720009CCF8091A00080628093A000D093AB000A
:10073000C093AA0092CF8091A00088608093A0000F
:10074000D093AD00C093AC0088CF80912001806829
:1007500080932001D0932901C09328017ECF8091FE
:100760002001806280932001D0932B01C0932A0145
:1007700074CF80912001886080932001D0932D0157
:10078000C0932C016ACFC038D1050CF03ECF33CFD7
:100790003FB7F89480917D0290917E02A0917F02F4
:1007A000B091800226B5A89B05C02F3F19F0019695
:1007B000A11DB11D3FBFBA2FA92F982F8827BC01BB
:1007C000CD01620F711D811D911D42E0660F771FE3
:1007D000881F991F4A95D1F708958F929F92AF92E3
:1007E000BF92CF92DF92EF92FF924B015C010E9489
:1007F000C8036B017C010E94C8036C197D098E0936
:100800009F09683E734081059105A8F321E0821A93
:100810009108A108B10888EEC80E83E0D81EE11C3B
:10082000F11C81149104A104B10429F7FF90EF9009
:10083000DF90CF90BF90AF909F908F900895CF9210
:10084000DF92EF92FF920F931F93CF93DF93CDB779
:10085000DEB7C054D1400FB6F894DEBF0FBECDBF97
:100860002FB7F8948091810290918202A091830227
:10087000B09184022FBF40918E0250918F026091FF
:100880009002709191028C019D01041B150B260BA7
:10089000370BB901A801403D57406105710590F43F
:1008A00080919602C05CDE4F0FB6F894DEBF0FBE9B
:1008B000CDBFDF91CF911F910F91FF90EF90DF900F
:1008C000CF90089580938E0290938F02A093900210
:1008D000B0939102109289021092880210928702BE
:1008E000109286021092850261E080918A020E9435
:1008F00087026AEF70E080E090E00E94ED0361E023
:1009000080918A020E94B50260E080918A020E9472
:10091000870264E170E080E090E00E94ED03F894CB
:1009200061E080918A020E9487028BE990E0019742
:10093000F1F762E080918A020E94B50283E290E0C2
:100940000197F1F780E00E948401672B682B692BE7
:1009500029F410929602789480E0A4CF81E00E945E
:100960008401672B682B692BA1F38E010F5F1F4F4A
:100970006E012FEBC21A2EEFD20A780180E00E949E
:100980008401F701608371838283938381E00E94F5
:100990008401F7016483758386839783F8E0EF0E03
:1009A000F11CEC14FD0451F7789430E020E0F801DC
:1009B000C080D180E280F380448155816681778157
:1009C000C114D104E104F10429F041155105610578
:1009D000710519F410929602BFCFF90183E0F595E5
:1009E000E7958A95E1F7EB57FD4F8081880FC41694
:1009F000D506E606F70610F180832F5F3F4F085FAC
:100A00001F4F2832310599F64091890220918502C5
:100A100080918602280F3327331F80918702280F89
:100A2000311D80918802820F932F911D99274817BD
:100A3000190681F681E08093960234CF8160DCCF85
:100A4000089590E080E00895FC0101900020E9F70E
:100A50003197AF01481B590BBC0187E992E00C9418
:100A6000CA01CF93DF93EC0160E08E810E94870280
:100A700061E08E810E94870260E08E810E94870281
:100A80008BE891E00197F1F7DF91CF910895CF9234
:100A9000DF92EF92FF920F931F93CF93DF936C013E
:100AA0007C0187E0E80EF11CD0E0C0E0062F10E0EA
:100AB000B8010C2E02C0759567950A94E2F7617033
:100AC000F70181917F010E9487022196C430D105F0
:100AD00079F7C601DF91CF911F910F91FF90EF90B1
:100AE000DF90CF900C943105CF92DF92EF92FF927E
:100AF0000F931F93CF93DF93EC01F62E642F8C811D
:100B00000E9487028D818F3F19F060E00E9487026A
:100B10000F2D10E08F8584FF25C06E0187E0C80E81
:100B2000D11CF12CE12CB8010E2C02C075956795F3
:100B30000A94E2F76170F60181916F010E948702C9
:100B4000FFEFEF1AFF0A88E0E816F10461F7CE0123
:100B5000DF91CF911F910F91FF90EF90DF90CF9099
:100B60000C943105B80184E0759567958A95E1F795
:100B7000CE010E9447056F2DCE01DF91CF911F91CD
:100B80000F91FF90EF90DF90CF900C94470540E0DD
:100B9000682F87E992E00C94740581E00E94C705F4
:100BA0008BE39FE10197F1F70895CF93DF938230B4
:100BB00029F49091A60298609093A6028093AA02CD
:100BC0001092AB0280E48093AC0280E18093AD028E
:100BD00080E58093AE0261E080919B020E94B502A5
:100BE00080919C028F3F19F061E00E94B50261E0A4
:100BF00080919D020E94B502C7E9D2E09E0127596B
:100C000032408091A60284FD0BC084E090E02196E2
:100C10002817390744F461E08E810E94B502EECFB7
:100C200088E090E0F4CF8BE39DE00197F1F760E07E
:100C300080919B020E94870260E080919D020E9449
:100C4000870280919C028F3F19F060E00E9487022A
:100C50008091A60284FD34C063E087E992E00E949F
:100C60004705CBE4D6E4CE010197F1F763E087E9CD
:100C700092E00E9447052197F1F763E087E992E04F
:100C80000E94470583E592E00197F1F762E087E96A
:100C900092E00E9447058091A60280620E94C705EB
:100CA00084E08093A7028CE00E94C7050E94CD05D6
:100CB00082E08093A80286E0DF91CF910C94C70573
:100CC00080620E94C7058BE496E40197F1F780915A
:100CD000A60280620E94C70583E592E00197F1F7C2
:100CE0008091A60280620E94C705D5CF9091AA028A
:100CF000691710F06FEF690FE62FF0E0E956FD4F2E
:100D00009489890F80680C94C70541E00E9474059E
:100D100081E090E008951F920F920FB60F92112478
:100D20002F933F938F939F93AF93BF9380918102B3
:100D300090918202A0918302B091840230917C0252
:100D400023E0230F2D3758F50196A11DB11D2093E7
:100D50007C028093810290938202A0938302B093DD
:100D6000840280917D0290917E02A0917F02B091D9
:100D700080020196A11DB11D80937D0290937E0299
:100D8000A0937F02B0938002BF91AF919F918F910A
:100D90003F912F910F900FBE0F901F90189526E84E
:100DA000230F0296A11DB11DD2CF789484B5826025
:100DB00084BD84B5816084BD85B5826085BD85B5FF
:100DC000816085BD80916E00816080936E0010927D
:100DD00081008091810082608093810080918100F8
:100DE0008160809381008091800081608093800089
:100DF0008091B10084608093B1008091B0008160E7
:100E00008093B000809191008260809391008091E6
:100E10009100816080939100809190008160809327
:100E200090008091A10082608093A1008091A10038
:100E300081608093A1008091A00081608093A000D8
:100E40008091210182608093210180912101816044
:100E50008093210180912001816080932001809105
:100E60007A00846080937A0080917A008260809317
:100E70007A0080917A00816080937A0080917A0074
:100E8000806880937A001092C10082E00E94D505AC
:100E900062E080918A020E94B50280E398EFAFEF92
:100EA000BFEF80938E0290938F02A0939002B09335
:100EB000910261E08BE20E94B50261E08AE20E9449
:100EC000B50261E08CE20E94B50261E086E10E9419
:100ED000B50260E08DE20E94B50260E085E10E940B
:100EE000B502DAE000E010E08FEDD82E8DE20E942E
:100EF0005E027C0185E10E945E0268EE73E080E0A4
:100F000090E00E94ED030E941F04882341F080912D
:100F10008B028B3049F018F08551823008F160E087
:100F200070E080EC9FE707C06091850270E090E080
:100F300080E00E94AE090E947F09C62E0E941F0415
:100F4000882349F080918B028B3059F120F0855134
:100F5000823008F459C060E070E080EC9FE728C060
:100F60006091850270E090E080E00E94AE0920E090
:100F700030E040E853E40E943C0A4B015C01609180
:100F8000860270E090E080E00E94B009A501940123
:100F90000E9413092DEC3CEC4CEC5DE30E943C0AF2
:100FA000CACF6091870270E090E080E00E94AE09B5
:100FB0000E947F09C62F6C2D70E090E080E00E94B7
:100FC000AE099B01AC010E94A90A81110CC06C2FD3
:100FD00070E090E080E00E94AE099B01AC010E94AD
:100FE000A90A8823B9F10E94CD0560E085E00E943E
:100FF00076068CE192E00E9424050115110509F4A2
:1010000075CF0E94000072CFC09187026C2F6F775E
:1010100070E090E080E00E94B00920E030E040E81D
:1010200053E40E943C0A4B015C016091880270E02D
:1010300090E080E00E94B009A50194010E9413098C
:101040002DEC3CEC4CEC5DE30E943C0AC7FFB0CFBA
:101050009058AECF8C2F6D2F0E94D20A805D809366
:101060000702905D90930802D0920B0260E080E04E
:101070000E94760680E092E00E942405EA94EF2820
:1010800009F086C061E08BE20E94870264E670E0AE
:1010900080E090E00E94ED03C43140F470E060E035
:1010A00086E10E94F10282E292E00DC0C731A0F415
:1010B00063E370E086E10E94F10261E080E00E945B
:1010C00076068AE292E00E94240560ED77E080E0F7
:1010D00090E00E94ED0359C0C93160F466E670E00B
:1010E00086E10E94F10261E080E00E94760689E3D9
:1010F00092E0E9CFCB3160F469E970E086E10E94CB
:10110000F10261E080E00E94760688E492E0DBCFA5
:10111000CD3160F468EC70E086E10E94F10261E09C
:1011200080E00E94760687E592E0CDCFCE516FEF4A
:1011300070E086E1C03148F40E94F10261E080E095
:101140000E94760686E692E0BECF0E94F10261E040
:101150008AE20E94870261E08CE20E94870261E0DD
:1011600080E00E94760686E792E00E94240560ED0A
:1011700077E080E090E00E94ED0360E08CE20E9466
:10118000870260E08AE20E9487020E94CD0535CF87
:1011900060E08BE20E94870264E670E080E090E00D
:1011A0000E94ED037BCFE7E9F2E01382128284E133
:1011B00092E09183808387E084838FEF858386E04C
:1011C000868385E0878384E0808783E0818782E06F
:1011D00082871386148615861686178681E00E94FC
:1011E000D505A5E8B2E088E015968C9315978BE0BD
:1011F00016968C931697E2E0F2E0E4911796EC9342
:101200001797ECEBF1E0E4911896EC93189740E80F
:101210005EE360E070E01D964D935D936D937C936B
:10122000509708955058BB27AA270E942A090C946A
:10123000020A0E94F40938F00E94FB0920F039F4F8
:101240009F3F19F426F40C94F1090EF4E095E7FBA6
:101250000C94EB09E92F0E94130A58F3BA1762079E
:1012600073078407950720F079F4A6F50C94350AE6
:101270000EF4E0950B2EBA2FA02D0B01B9019001B1
:101280000C01CA01A0011124FF27591B99F0593FF5
:1012900050F4503E68F11A16F040A22F232F342F3D
:1012A0004427585FF3CF469537952795A795F0408B
:1012B0005395C9F77EF41F16BA0B620B730B840BA0
:1012C000BAF09150A1F0FF0FBB1F661F771F881F58
:1012D000C2F70EC0BA0F621F731F841F48F48795B0
:1012E00077956795B795F7959E3F08F0B0CF9395A2
:1012F000880F08F09927EE0F9795879508950E941B
:101300001B0A88F09F5798F0B92F9927B751B0F072
:10131000E1F0660F771F881F991F1AF0BA95C9F779
:1013200014C0B13091F00E94350AB1E008950C94D8
:10133000350A672F782F8827B85F39F0B93FCCF38B
:10134000869577956795B395D9F73EF490958095F6
:10135000709561957F4F8F4F9F4F0895E89409C016
:1013600097FB3EF490958095709561957F4F8F4FD8
:101370009F4F9923A9F0F92F96E9BB279395F695EE
:10138000879577956795B795F111F8CFFAF4BB0F6C
:1013900011F460FF1BC06F5F7F4F8F4F9F4F16C0D0
:1013A000882311F096E911C0772321F09EE8872F5A
:1013B000762F05C0662371F096E8862F70E060E016
:1013C0002AF09A95660F771F881FDAF7880F96958F
:1013D000879597F9089597F99F6780E870E060E036
:1013E00008959FEF80EC089500240A9416161706BE
:1013F00018060906089500240A9412161306140606
:1014000005060895092E0394000C11F4882352F068
:10141000BB0F40F4BF2B11F460FF04C06F5F7F4F20
:101420008F4F9F4F089557FD9058440F551F59F007
:101430005F3F71F04795880F97FB991F61F09F3FC1
:1014400079F087950895121613061406551FF2CFEA
:101450004695F1DF08C0161617061806991FF1CF3A
:1014600086957105610508940895E894BB27662761
:101470007727CB0197F908950E944F0A0C94020A2E
:101480000E94F40938F00E94FB0920F0952311F026
:101490000C94EB090C94F10911240C94360A0E9467
:1014A000130A70F3959FC1F3950F50E0551F629F8B
:1014B000F001729FBB27F00DB11D639FAA27F00DAD
:1014C000B11DAA1F649F6627B00DA11D661F829FD4
:1014D0002227B00DA11D621F739FB00DA11D621FB9
:1014E000839FA00D611D221F749F3327A00D611DD6
:1014F000231F849F600D211D822F762F6A2F1124B8
:101500009F5750409AF0F1F088234AF0EE0FFF1FEA
:10151000BB1F661F771F881F91505040A9F79E3F41
:10152000510580F00C94EB090C94360A5F3FE4F30C
:10153000983ED4F3869577956795B795F795E79597
:101540009F5FC1F7FE2B880F911D9695879597F9A0
:1015500008950E94AE0A880B990B0895990F000810
:10156000550FAA0BE0E8FEEF16161706E807F90775
:10157000C0F012161306E407F50798F0621B730B10
:10158000840B950B39F40A2661F0232B242B252B91
:1015900021F408950A2609F4A140A6958FEF811D34
:1015A000811D0895991B79E004C0991F961708F0D2
:1015B000961B881F7A95C9F780950895EE0FFF1F37
:1015C000881F8BBF0790F691E02D1994F894FFCFF8
:1015D00054656D70203D2030302E30204320200097
:1015E000000000008506CA01210520054572726FC2
:1015F000720046616E206F66660046616E207370F1
:101600006565643A203230250046616E207370654E
:1016100065643A203430250046616E20737065653C
:10162000643A203630250046616E2073706565642B
:101630003A203830250046616E2073706565643A43
:0C164000203130302500464952450000A2
:00000001FF
